:020000040800F2
:1000000058080020C9010008111800081F16000830
:100010000D18000853030008B31900080000000081
:10002000000000000000000000000000411800086F
:1000300057030008000000001518000843180008C6
:10004000E3010008E3010008E3010008E301000800
:10005000E3010008E3010008E3010008E3010008F0
:10006000E3010008E3010008E3010008E3010008E0
:10007000E3010008E3010008E3010008E3010008D0
:10008000E3010008E3010008E3010008E3010008C0
:10009000E3010008E3010008E3010008510400083F
:1000A000E3010008E3010008E3010008E3010008A0
:1000B000E3010008B9180008E3010008E3010008A3
:1000C000E3010008E3010008E3010008E301000880
:1000D000E3010008E3010008E3010008E301000870
:1000E000E3010008E3010008E301000800F002F862
:1000F00000F05AF80AA090E8000C82448344AAF168
:100100000107DA4501D100F04FF8AFF2090EBAE865
:100110000F0013F0010F18BFFB1A43F0010318473B
:10012000341B0000541B00000A444FF0000C10F870
:10013000013B13F0070408BF10F8014B1D1108BF65
:1001400010F8015B641E05D010F8016B641E01F805
:10015000016BF9D113F0080F1EBF10F8014BAD1C55
:100160000C1B09D16D1E58BF01F801CBFAD505E073
:1001700014F8016B01F8016B6D1EF9D59142D6D3CD
:10018000704700000023002400250026103A28BFF5
:1001900078C1FBD8520728BF30C148BF0B607047F9
:1001A0001FB51FBD10B510BD00F099F81146FFF73F
:1001B000F7FF01F01DFC00F0B7F803B4FFF7F2FF02
:1001C00003BC00F0BFF80000094880470948004719
:1001D000FEE7FEE7FEE7FEE7FEE7FEE7FEE7FEE7F7
:1001E000FEE7FEE704480549054A064B7047000054
:1001F000B5180008ED00000858020020580800203B
:1002000058040020580400204FF0000200B51346A7
:1002100094469646203922BFA0E80C50A0E80C5026
:10022000B1F12001BFF4F7AF090728BFA0E80C50D7
:1002300048BF0CC05DF804EB890028BF40F8042BD0
:1002400008BF704748BF20F8022B11F0804F18BF3D
:1002500000F8012B704700004FF0013C50F8042BD0
:1002600051F8043B9A4221D1A2EB0C03934313EAC9
:10027000CC1317D150F8042B51F8043B9A4215D1F6
:10028000A2EB0C03934313EACC130BD150F8042BCD
:1002900051F8043B9A4209D1A2EB0C03934313EAB1
:1002A000CC13DBD04FF00000704700BFD01A01BA6A
:1002B000B1FA81F101F0180122FA01F0CB40C1F14D
:1002C0002001DBB2C0B2C01A2CFA01F3D11A91435B
:1002D00011EAC311E6D17047704770477047754601
:1002E00000F02CF8AE4605006946534620F00700A2
:1002F000854618B020B5FFF775FFBDE820404FF0E8
:1003000000064FF000074FF000084FF0000B21F0FF
:100310000701AC46ACE8C009ACE8C009ACE8C009CC
:10032000ACE8C0098D46704710B50446AFF30080B5
:100330002046BDE81040FFF740BF0000004870476E
:10034000F801002001491820ABBEFEE7260002009C
:10035000704700BFFEE7704710B51E4800680328CD
:1003600001D1002002E01B480068401C194A1060BF
:1003700019481268825C1948164B1B68C05C42EA37
:100380000020174A127840EA020108468022154BE5
:100390001A60002215E04FF48073124C236000F4C1
:1003A00000431BB16315241F236003E04FF4007367
:1003B0000C4C236040004FF480730A4C241F2360D0
:1003C000521C102AE7DB8022064B1B1F1A6000BF5D
:1003D00010BD0000080000203C1B000801000020A8
:1003E00000000020140C014010B5044604212046F2
:1003F00000F002F810BD000030B50A46002120E0F0
:1004000004781CB90024104D6C5419E08A4202D0C3
:1004100044782E2C03D10D4C94F82E4000E000249B
:1004200023460478094D2C5D1C43074D6C54047819
:100430002E2C03D044782E2C00D1401C401C00BF31
:10044000491C0429DCDB30BD01000020BC1A000877
:1004500010B5202000F06CF810BD72B600BFFEE7AA
:1004600010B50446202C51D12021294800F0FEF976
:1004700050B96006406A27490860274800F04CFFE1
:1004800000202649086041E04FF08040406A24493E
:100490000860084600681F490968884207DB204851
:1004A00000681C490968401A1E49086008E019489C
:1004B00000681B490968401AC0F57A60194908604C
:1004C0001848006864280FDD16480068B0F5167FEC
:1004D0000ADA2E201449154A126888541348006815
:1004E000401C124908600EE00E480068B0F5167F07
:1004F00009DB2D210C480D4A126881540B48006815
:10050000401C0A490860044800F0CAFE10BD000003
:10051000000C014010000020B00100202404004025
:100520000C000020140000205C01002018000020B6
:1005300010B5044604480068204020B10248046019
:100540002046FFF78DFF10BD140401402DE9F84748
:100550000346002294466EE14FF0010808FA02F4C7
:10056000D1F8008008EA0400A0427DD1DFF8DCA2C7
:10057000D1F80480A8EB0A09D0453AD014DCB8F1D0
:10058000030F50D009DCB8F1000F31D0B8F1010FE2
:100590001CD0B8F1020F49D120E0B8F1110F18D0EA
:1005A000B8F1120F42D11EE0B9F5881F25D006DC44
:1005B000B9F5803F20D0B9F5801F37D11AE0B9F5E1
:1005C000001F18D0B9F5041F30D117E0D1F80CC0C6
:1005D0002DE0D1F80C8008F1040C28E0D1F80C8053
:1005E00008F1080C23E0D1F80C8008F10C0C1EE097
:1005F00000BF00BF00BF00BF00BF00BFD1F8088030
:10060000B8F1000F02D14FF0040C0BE0D1F80880D4
:10061000B8F1010F03D14FF0080C1C6102E04FF05C
:10062000080C5C6103E04FF0000C00E000BF00BF6D
:10063000FF2801D8984601E003F104084646FF2848
:1006400002D84FEA820803E0A2F108084FEA8808BE
:100650004746D6F800804FF00F0909FA07F928EA53
:1006600009080CFA07F900E088E048EA0908C6F82A
:100670000080D1F8048008F08058B8F1805F7DD107
:1006800000BFDFF8CC81D8F8188048F00108DFF807
:10069000C091C9F81880C846D8F8188008F0010839
:1006A000CDF8008000BF00BF4FEAB9384FEA920989
:1006B00058F829504FEA82784FEA18794FF00F081E
:1006C00008FA09F825EA0805DFF88881434502D1D0
:1006D0004FF0000816E0DFF88081434502D14FF06B
:1006E00001080FE0DFF87481434502D14FF00208A2
:1006F00008E0DFF86C81434502D14FF0030801E0C8
:100700004FF004084FEA82794FEA197908FA09F89C
:1007100048EA0505DFF84C814FEA920948F829506C
:10072000D1F8048008F48018B8F5801F0AD1DFF8EA
:100730003881D8F8008048EA0008DFF82C91C9F821
:10074000008009E0DFF82081D8F8008028EA00085E
:10075000DFF81491C9F80080D1F8048008F400187B
:10076000B8F5001F10D1DFF8008108F10408D8F8AF
:10077000008048EA0008DFF8F09000E05AE009F154
:100780000409C9F800800DE0DFF8DC8008F10408F6
:10079000D8F8008028EA0008DFF8CC9009F10409B5
:1007A000C9F80080D1F8048008F40038B8F5003F9B
:1007B0000ED1DFF8B480A8F10408D8F8008048EA28
:1007C0000008DFF8A490A9F10409C9F800800DE041
:1007D000DFF89480A8F10408D8F8008028EA00081F
:1007E000DFF88490A9F10409C9F80080D1F80480E9
:1007F00008F48038B8F5803F0ED1DFF86C80A8F19E
:100800000808D8F8008048EA0008DFF85C90A9F1F1
:100810000809C9F800800DE0DFF84C80A8F108084D
:10082000D8F8008028EA0008DFF83C90A9F1080910
:10083000C9F80080521CD1F8008028FA02F8B8F1FB
:10084000000F7FF489AEBDE8F887000000001110AA
:100850000010024000080140000C0140001001405F
:10086000001401400800014008040140024693685A
:100870000B400BB1012000E0002070470AB101617C
:1008800001E00B04036170470148006870470000F5
:100890004C010020034800680349097808440149D5
:1008A000086070474C0100205401002010B5084832
:1008B000006840F0100006490860032000F0A8F826
:1008C0000F2000F007F800F02BF8002010BD00000A
:1008D0000020024070B504460E4800784FF47A714B
:1008E000B1FBF0F00C490968B1FBF0F5284600F0C7
:1008F000D7FB08B1012070BD102C07D20022214681
:10090000501E00F047F80548046001E00120F2E7BE
:100910000020F0E754010020580100205001002081
:1009200008B500BF1148806940F001000F49886197
:100930000846806900F00100009000BF00BF00BFC2
:100940000846C06940F08050C8610846C06900F0A0
:100950008050009000BF00BF00BF0549486820F0EC
:10096000E06040F00070486000BF08BD0010024029
:100970000000014001460846002809DB00F01F0383
:1009800001229A4043099B0003F1E023C3F80021B0
:1009900000BF70472DE9F05F80460D4616460027E0
:1009A00001F00AF8074639462A46334601F00700A7
:1009B000C0F1070ABAF1040F02D94FF0040A01E0AE
:1009C000C0F1070AD14600F1040ABAF1070F02D2BA
:1009D0004FF0000A01E0A0F1030AD4464FF0010AEB
:1009E0000AFA09FAAAF1010A0AEA020A0AFA0CFA50
:1009F0004FF0010B0BFA0CFBABF1010B0BEA030BF5
:100A00004AEA0B042146404600F0DEFFBDE8F09FB5
:100A100000BF00F00702064B19684FF6FF031940AC
:100A2000044B0B4343EA0221014B196000BF70479E
:100A30000CED00E00000FA0570B504460D460CB957
:100A4000012070BD5A48006800F00700A8420ED28D
:100A50005748006820F007002843554908600846B9
:100A6000006800F00700A84201D00120E9E72078E3
:100A700000F0020002281DD1207800F004000428B4
:100A800005D14C48406840F4E0604A49486020780D
:100A900000F00800082805D14648406840F460503E
:100AA000444948604348406820F0F000A16808438A
:100AB00040494860207800F0010078B36068012860
:100AC00006D13C48006800F4003090B90120B8E736
:100AD0006068022806D13748006800F0007040B90D
:100AE0000120AEE73348006800F0020008B9012099
:100AF000A7E73048406820F00300616808432D49AB
:100B00004860FFF7C1FE064609E0FFF7BDFE801B07
:100B100041F28831884202D9032092E707E0254854
:100B2000406800F00C006168B0EB810FEDD1204807
:100B3000006800F00700A8420ED91D48006820F0A8
:100B4000070028431A4908600846006800F00700BB
:100B5000A84201D0012074E7207800F004000428A6
:100B600007D11448406820F4E060E1680843114967
:100B70004860207800F00800082808D10D48406837
:100B800020F46050216940EAC1000A49486000F041
:100B900019F808494968C1F30311074A515CC84074
:100BA0000649086006480068FFF794FE002048E701
:100BB0000020024000100240521B00085801002093
:100BC0005001002070B500210022002400230020E5
:100BD000134D696801F00C05F5B1042D02D0082D04
:100BE00019D101E00F4819E00F4DC1F38346AB5D09
:100BF00001F4803555B10A4D6D68C5F340450B4E83
:100C0000725D084D5D43B5FBF2F402E0084D03FB55
:100C100005F4204602E000BF024800BF00BF70BDDF
:100C20000010024000127A00401B0008501B000810
:100C300000093D00F8B504460CB90120F8BD207844
:100C400000F00100002878D0F848406800F00C005F
:100C500004280CD0F548406800F00C00082811D199
:100C6000F248406800F48030B0F5803F0AD1EF4888
:100C7000006800F4003000285FD0606800285CD174
:100C80000120DBE700BF6068B0F5803F06D1E74890
:100C9000006840F48030E549086028E0606858B991
:100CA000E248006820F48030E049086008460068A7
:100CB00020F4802008601AE06068B0F5A02F0BD106
:100CC000DA48006840F48020D84908600846006887
:100CD00040F4803008600AE0D448006820F4803096
:100CE000D24908600846006820F48020086000BFF0
:100CF000606888B1FFF7C8FD054606E0FFF7C4FD50
:100D0000401B642801D9032098E7C848006800F414
:100D100000300028F2D010E0FFF7B6FD054606E0EF
:100D2000FFF7B2FD401B642801D9032086E7BF48C6
:100D3000006800F400300028F2D1207800F00200B2
:100D4000022857D1B948406800F00C0050B1B748AC
:100D5000406800F00C00082818D1B448406800F43E
:100D6000803098B9B148006800F0020020B12069D5
:100D7000012801D0012061E7AC48006820F0F800AC
:100D8000616940EAC100A949086033E02069E8B11F
:100D90000120A7490860FFF777FD054606E0FFF749
:100DA00073FD401B022801D9032047E79F480068D4
:100DB00000F002000028F2D09C48006820F0F80003
:100DC000616940EAC1009949086013E00020984930
:100DD0000860FFF759FD054606E0FFF755FD401B8B
:100DE000022801D9032029E79048006800F002009A
:100DF0000028F2D1207800F0080008282DD1A06941
:100E0000B8B101208B490860FFF73EFD054606E0BA
:100E1000FFF73AFD401B022801D903200EE7834863
:100E2000406A00F002000028F2D0012000F0F4FC3B
:100E300013E000207F490860FFF726FD054606E025
:100E4000FFF722FD401B022801D90320F6E6774870
:100E5000406A00F002000028F2D1207800F004007F
:100E6000042873D100277148C06900F0805070B920
:100E700000BF6E48C06940F080506C49C8610846A8
:100E8000C06900F08050009000BF00BF01276A4891
:100E9000006800F48070B0B96748006840F4807062
:100EA00065490860FFF7F0FC054606E0FFF7ECFC3B
:100EB000401B642801D90320C0E65F48006800F4A5
:100EC00080700028F2D000BFE068012806D15748A2
:100ED000006A40F001005549086227E0E06858B90F
:100EE0005248006A20F00100504908620846006A32
:100EF00020F00400086219E0E06805280BD14B4897
:100F0000006A40F00400494908620846006A40F05F
:100F1000010008620AE04548006A20F001004349E8
:100F200008620846006A20F00400086200BFE0681A
:100F3000A0B1FFF7A9FC054609E0FFF7A5FC401B9F
:100F400041F28831884202D9032077E622E037480F
:100F5000006A00F002000028EFD012E0FFF794FCD6
:100F6000054608E0FFF790FC401B41F288318842BB
:100F700001D9032062E62D48006A00F00200002833
:100F8000F0D1012F05D12948C06920F080502749B0
:100F9000C86100BFE069C8B32448406800F00C0095
:100FA000082860D0E069022848D10020204908665E
:100FB000FFF76AFC054606E0FFF766FC401B0228C7
:100FC00001D903203AE61948006800F000700028B3
:100FD000F2D1206AB0F5803F07D11448406820F470
:100FE0000030A168084311494860D4E9080108436A
:100FF0000E49496821F4741108430C4948600120E6
:101000000B490866FFF740FC054607E03DE0FFF7A7
:101010003BFC401B022801D903200FE6034800686F
:1010200000F000700028F2D02FE000000010024015
:1010300000004242800442420070004000201449F7
:101040000866FFF721FC054606E0FFF71DFC401B84
:10105000022801D90320F1E50E48006800F0007075
:101060000028F2D111E0E069012800D1E6E5094845
:10107000466806F48031206A814204D106F470117A
:10108000606A814201D00120D8E50020D6E5000049
:10109000000042420010024010B5FFF75DF910BD9C
:1010A00070B504462546681EB0F1807F01D301204B
:1010B0000FE0681E4FF0E02148610F214FF0FF3034
:1010C00000F082FC00204FF0E021886107200861D9
:1010D000002070BD10B5FFF7DFFF10BD70477047EF
:1010E00030B502460B4600BF92F83C00012801D102
:1010F000022030BD012082F83C0000BF022082F8AF
:101100003D00106844681068816824F07004186815
:10111000044310684460104D1068A8420BD010685A
:10112000B0F1804F07D00D4D1068A84203D00C4D90
:101130001068A84205D121F0800158680143106869
:101140008160012082F83D0000BF002082F83C0051
:1011500000BF00BFCDE70000002C014000040040AC
:101160000008004010B504460CB9012010BD94F8E9
:101170003D0028B9002084F83C00204600F026F805
:10118000022084F83D00211D206800F09DFB012015
:1011900084F8460000BF84F83E0001213F2001553D
:1011A000402001554120015500BF00BF012084F8B7
:1011B000420043200155442001554520015500BF00
:1011C000012084F83D000020D0E7000038B5044637
:1011D0002068B0F1804F0DD100BF1448C06940F0C5
:1011E00001001249C8610846C06900F00100009082
:1011F00000BF19E00E492068884215D100BF0B4896
:10120000C06940F002000949C8610846C06900F0A1
:101210000200009000BF00BF002211461D20FFF712
:10122000B9FB1D20FFF7A6FB38BD000000100240EF
:1012300000040040014691F83D00012801D0012042
:101240007047022081F83D00124B086898420BD08D
:101250000868B0F1804F07D00F4B0868984203D060
:101260000E4B086898420CD10868806800F00702AD
:10127000062A0CD00868006840F001000B6818606E
:1012800005E00868006840F001000B681860002065
:10129000D6E70000002C0140000400400008004098
:1012A000014691F83D00012801D00120704702203D
:1012B00081F83D000868C06840F001000B68D86004
:1012C000124B086898420BD00868B0F1804F07D0E5
:1012D0000F4B0868984203D00E4B086898420CD117
:1012E0000868806800F00702062A0CD008680068C9
:1012F00040F001000B68186005E00868006840F0E5
:1013000001000B6818600020D0E70000002C0140AD
:10131000000400400008004001460868C06820F052
:1013200001000A68D06000BF0868006A41F211122B
:10133000104050B90868006A9210104028B9086837
:10134000006820F001000A68106000BF012081F8E9
:101350003D00002070472DE9F04104460D4600276E
:1013600000BF94F83C00012802D10220BDE8F081C2
:10137000012084F83C0000BF022084F83D00206872
:10138000866826F0770626F47F46206886602868FF
:10139000502833D00CDC202850D004DC00284BD05F
:1013A000102851D149E0302849D040284CD139E0AB
:1013B00060282DD0702807D0B0F5805F03D0B0F53D
:1013C000005F41D10DE041E0D5E902136A68206871
:1013D00000F0B4FA2068866846F0770620688660D8
:1013E00034E0D5E902136A68206800F0A7FA2068A3
:1013F000806840F480402168886027E0EA68696876
:10140000206800F0AFFA5021206800F0A2FA1DE039
:10141000EA686968206800F0B8FA6021206800F086
:1014200098FA13E0EA686968206800F09BFA4021A6
:10143000206800F08EFA09E000BF00BF00BF2968F5
:10144000206800F086FA01E0012700BF00BF0120FC
:1014500084F83D0000BF002084F83C0000BF3846FF
:1014600084E7704710B5044620680069C0F3400067
:10147000D8B12068C068C0F34000B0B16FF002007E
:1014800021680861012020772068806900F003004E
:1014900018B12046FFF7E5FF05E0204600F0ADF863
:1014A000204600F0ABF80020207720680069C0F3E8
:1014B0008000D8B12068C068C0F38000B0B16FF080
:1014C000040021680861022020772068806900F408
:1014D000407018B12046FFF7C4FF05E0204600F039
:1014E0008CF8204600F08AF80020207720680069F8
:1014F000C0F3C000D8B12068C068C0F3C000B0B16C
:101500006FF0080021680861042020772068C06916
:1015100000F0030018B12046FFF7A3FF05E02046C6
:1015200000F06BF8204600F069F800202077206872
:101530000069C0F30010D8B12068C068C0F3001083
:10154000B0B16FF010002168086108202077206892
:10155000C06900F4407018B12046FFF782FF05E033
:10156000204600F04AF8204600F048F80020207796
:101570002068006900F0010058B12068C06800F0E0
:10158000010030B16FF0010021680861204600F0D1
:1015900037F820680069C0F3C01058B12068C068EF
:1015A000C0F3C01030B16FF08000216808612046A0
:1015B000FFF794FD20680069C0F3801058B12068DF
:1015C000C068C0F3801030B16FF04000216808613E
:1015D000204600F023F820680069C0F3401058B19D
:1015E0002068C068C0F3401030B16FF0200021685F
:1015F00008612046FFF773FD10BD7047704700007B
:10160000044A0168914204D103490968491C024A0D
:1016100011607047000400401C000020704700BFAC
:10162000FEE7000000B585B0002001900290039015
:10163000049000BF3A48806940F020003849886132
:101640000846806900F02000009000BF00BF00BF86
:101650000846806940F0040088610846806900F00F
:101660000400009000BF00BF00BF0846806940F042
:10167000080088610846806900F00800009000BFFB
:1016800000BF00224FF400412648FFF7F7F8002280
:101690004FF462712448FFF7F1F84FF400400190D5
:1016A00001200290002003900220049001A91D480F
:1016B000FEF74CFF082001900120029000200390CB
:1016C0000220049001A91848FEF740FF2020019055
:1016D000164802900020039001A91348FEF736FF38
:1016E0004020019000200290039001A90E48FEF7CF
:1016F0002DFF4FF4607001901120029000200390A4
:101700000320049001A90848FEF720FF002211469B
:101710001720FFF73FF91720FFF72CF905B000BDA0
:101720000010024000080140000C01400000311090
:1017300000B587B0002003900490059006900190BA
:1017400002904FF08040144908604EF65F204860D8
:1017500000211148816040F69F71C1600021016144
:101760008161FFF7FFFC08B1FEF777FE4FF4805070
:10177000039003A90848FFF7EEFD08B1FEF76DFEE0
:1017800000200190029001A90348FFF7A9FC08B1CD
:10179000FEF763FE07B000BD6801002000B587B00A
:1017A0000020039004900590069001900290154847
:1017B000154908604EF65F2048600021124881609C
:1017C00040F6B731C1600021016180218161FFF7DE
:1017D000C9FC08B1FEF741FE4FF48050039003A905
:1017E0000948FFF7B8FD08B1FEF737FE0020019069
:1017F000029001A90448FFF773FC08B1FEF72DFE23
:1018000007B000BD00040040B001002000BFFEE7AB
:1018100000BFFEE77047000008B508490968C9081D
:101820004FF47A72B1FBF2F14143009100BF00BF67
:1018300000994A1E00920029F9D108BD58010020E4
:10184000704710B5FFF726F8FFF744FC10BD00B550
:101850008FB0282105A8FEF7D7FC14216846FEF7B3
:10186000D3FC012005900004069040000790012061
:10187000099002200C90C1030D914FF450110E916C
:1018800005A8FFF7D7F908B1FEF7E7FD0F20009094
:1018900002200190002002904FF48060039000200D
:1018A000049002216846FFF7C7F808B1FEF7D5FD9E
:1018B0000FB000BD7047000010B50248FFF7D2FD21
:1018C00010BD0000B001002010B50268184B98420E
:1018D00008D0B0F1804F05D0164B984202D0164B7D
:1018E000984203D122F070024B681A43104B984281
:1018F00008D0B0F1804F05D00E4B984202D00E4B6D
:10190000984203D122F44072CB681A4322F080033C
:101910004C6943EA040202608B68C3620B6883620D
:10192000034B984201D10B6903630123436110BD4E
:10193000002C0140000400400008004030B50C4677
:10194000816821F47F4142EA0325254329438160D0
:1019500030BD0A46816821F0700142F00703194347
:101960008160704730B50B461446026A056A25F05F
:1019700001050562816921F0F00141EA041122F0BC
:101980000A021A438161026230BD30B50B4614462B
:10199000026A056A25F010050562816921F470412B
:1019A00041EA043122F0A00242EA0312816102629C
:1019B00030BD00BFFEE7000002480068C0F302200F
:1019C000704700000CED00E010B5002804DB0A07AA
:1019D000130E054A135406E00A07140E034A00F0DA
:1019E0000F031B1FD45410BD00E400E018ED00E00D
:1019F000FEF75CFFFFF72BFFFFF714FEFFF798FEE3
:101A0000FFF7CCFE1948FFF715FC2DE018480068D9
:101A1000012803DC17480068052819D10020154962
:101A2000086013490860144800F030F81349087042
:101A3000084600781249134A126888541148006811
:101A4000401C104908600C48002101604160018180
:101A50000C480068042804D040210B48FEF706FF1C
:101A600010B90748FEF7C0FCD0E70000680100206D
:101A70001C000020180000205C0100202400002031
:101A80002500002020000020000C014070B5054614
:101A900000240CE0084951F834002946FEF7DCFB2D
:101AA00020B9054800EBC400007970BD641C242CEB
:101AB000F0DB3F20F9E700002C00002000000000D0
:101AC0000000000000000000000000000000000016
:101AD0000000000000000000000000000000000006
:101AE000000000000000000000022000DD09D39B80
:101AF0000F9EDE19DF9F000000820000005FCEC253
:101B0000CBD6569F4E40895EC44B4ACA571F429E51
:101B1000C6C8CDCF4F8F430000000080005FCEC20B
:101B2000CBD6569F4E40895EC44B4ACA571F429E31
:101B3000C6C8CDCF4F8F43000000000070B0D0E08A
:101B400002030405060708090A0B0C0D0E0F1010FE
:101B5000010200000000000000000102030406076B
:101B60000809000000000102030400002D2D2D2DA6
:101B70002D0000002E2D2D2D2D0000002E2E2D2DA0
:101B80002D0000002E2D2D2D000000002D2D2D00EC
:101B90002D2E2D2D000000002E2E2E2D2D000000AC
:101BA0002E2D2D002D2D00002D2D2E2D000000009E
:101BB0002D2E2D002D2E2E2D000000002E2E2E2E2F
:101BC0002D0000002E2E2E2D000000002E2E2D00A8
:101BD0002E2D00002D0000002D2D2D2D2E0000009B
:101BE0002E2D2D2E000000002D2D2E002D2E2D2E01
:101BF000000000002E2E2D2E000000002E2D2E00A5
:101C00002D2E00002D2D2D2E2E0000002D2D2E2EE0
:101C1000000000002E2D2E2E000000002D2E2E0084
:101C20002D2D2E2E2E0000002D2E2E2E0000000019
:101C30002D2E2E2E2E0000002E2E2E2E2E000000D9
:101C40002E2E2E2E000000002E2E2E002E2E0000F6
:101C50002E000000741C0008000000205C01000041
:101C600028010008341D00085C010020FC0600006B
:101C700084010008022B0F13D01B33084113281CCA
:101C80003308421AEC1032431A1C1032441A50081E
:101C900032451AF41832461AE80832471A40183208
:101CA000481A4C0832491A8418324A1AB008324B82
:101CB0001A1418324C1AA410424D1910324E1A8CB4
:101CC00010324F1AE00832501AA80832511AFC0894
:101CD00032521A482832531AD41032541ACC0832CD
:101CE000551AC40832561AA00832571AB408325886
:101CF0001A900832591A0C38325A1A6C1032301AAB
:101D0000740832311A7C0832321A980832331ABCFD
:101D10000832341A383032351A300832361A200870
:101D200032371A040832381AD82872393210420170
:041D30001324F40084
:04000005080000ED02
:00000001FF
